{
  "_format": "hh-sol-artifact-1",
  "contractName": "LendingFactory",
  "sourceName": "contracts/LendingFactory.sol",
  "abi": [
    {
      "inputs": [],
      "stateMutability": "nonpayable",
      "type": "constructor"
    },
    {
      "anonymous": false,
      "inputs": [
        {
          "indexed": false,
          "internalType": "address",
          "name": "newAddress",
          "type": "address"
        }
      ],
      "name": "Deployed",
      "type": "event"
    },
    {
      "anonymous": false,
      "inputs": [
        {
          "indexed": true,
          "internalType": "address",
          "name": "previousOwner",
          "type": "address"
        },
        {
          "indexed": true,
          "internalType": "address",
          "name": "newOwner",
          "type": "address"
        }
      ],
      "name": "OwnershipTransferred",
      "type": "event"
    },
    {
      "inputs": [
        {
          "internalType": "uint256",
          "name": "",
          "type": "uint256"
        }
      ],
      "name": "NFTList",
      "outputs": [
        {
          "internalType": "address",
          "name": "",
          "type": "address"
        }
      ],
      "stateMutability": "view",
      "type": "function"
    },
    {
      "inputs": [
        {
          "internalType": "address",
          "name": "_nft",
          "type": "address"
        }
      ],
      "name": "create",
      "outputs": [
        {
          "internalType": "address",
          "name": "",
          "type": "address"
        }
      ],
      "stateMutability": "nonpayable",
      "type": "function"
    },
    {
      "inputs": [],
      "name": "owner",
      "outputs": [
        {
          "internalType": "address",
          "name": "",
          "type": "address"
        }
      ],
      "stateMutability": "view",
      "type": "function"
    },
    {
      "inputs": [],
      "name": "renounceOwnership",
      "outputs": [],
      "stateMutability": "nonpayable",
      "type": "function"
    },
    {
      "inputs": [
        {
          "internalType": "address",
          "name": "newOwner",
          "type": "address"
        }
      ],
      "name": "transferOwnership",
      "outputs": [],
      "stateMutability": "nonpayable",
      "type": "function"
    }
  ],
  "bytecode": "0x608060405234801561001057600080fd5b5061002d61002261003260201b60201c565b61003a60201b60201c565b6100fe565b600033905090565b60008060009054906101000a900473ffffffffffffffffffffffffffffffffffffffff169050816000806101000a81548173ffffffffffffffffffffffffffffffffffffffff021916908373ffffffffffffffffffffffffffffffffffffffff1602179055508173ffffffffffffffffffffffffffffffffffffffff168173ffffffffffffffffffffffffffffffffffffffff167f8be0079c531659141344cd1fd0a4f28419497f9722a3daafe3b4186f6b6457e060405160405180910390a35050565b612f198061010d6000396000f3fe608060405234801561001057600080fd5b50600436106100575760003560e01c8063715018a61461005c5780638da5cb5b146100665780639ed9331814610084578063a7d18a49146100b4578063f2fde38b146100e4575b600080fd5b610064610100565b005b61006e610188565b60405161007b919061055b565b60405180910390f35b61009e600480360381019061009991906105a7565b6101b1565b6040516100ab919061055b565b60405180910390f35b6100ce60048036038101906100c9919061060a565b61030a565b6040516100db919061055b565b60405180910390f35b6100fe60048036038101906100f991906105a7565b610349565b005b610108610441565b73ffffffffffffffffffffffffffffffffffffffff16610126610188565b73ffffffffffffffffffffffffffffffffffffffff161461017c576040517f08c379a000000000000000000000000000000000000000000000000000000000815260040161017390610694565b60405180910390fd5b6101866000610449565b565b60008060009054906101000a900473ffffffffffffffffffffffffffffffffffffffff16905090565b60006101bb610441565b73ffffffffffffffffffffffffffffffffffffffff166101d9610188565b73ffffffffffffffffffffffffffffffffffffffff161461022f576040517f08c379a000000000000000000000000000000000000000000000000000000000815260040161022690610694565b60405180910390fd5b60008260405161023e9061050d565b610248919061055b565b604051809103906000f080158015610264573d6000803e3d6000fd5b5090506002819080600181540180825580915050600190039060005260206000200160009091909190916101000a81548173ffffffffffffffffffffffffffffffffffffffff021916908373ffffffffffffffffffffffffffffffffffffffff1602179055507ff40fcec21964ffb566044d083b4073f29f7f7929110ea19e1b3ebe375d89055e816040516102f9919061055b565b60405180910390a180915050919050565b6002818154811061031a57600080fd5b906000526020600020016000915054906101000a900473ffffffffffffffffffffffffffffffffffffffff1681565b610351610441565b73ffffffffffffffffffffffffffffffffffffffff1661036f610188565b73ffffffffffffffffffffffffffffffffffffffff16146103c5576040517f08c379a00000000000000000000000000000000000000000000000000000000081526004016103bc90610694565b60405180910390fd5b600073ffffffffffffffffffffffffffffffffffffffff168173ffffffffffffffffffffffffffffffffffffffff161415610435576040517f08c379a000000000000000000000000000000000000000000000000000000000815260040161042c90610726565b60405180910390fd5b61043e81610449565b50565b600033905090565b60008060009054906101000a900473ffffffffffffffffffffffffffffffffffffffff169050816000806101000a81548173ffffffffffffffffffffffffffffffffffffffff021916908373ffffffffffffffffffffffffffffffffffffffff1602179055508173ffffffffffffffffffffffffffffffffffffffff168173ffffffffffffffffffffffffffffffffffffffff167f8be0079c531659141344cd1fd0a4f28419497f9722a3daafe3b4186f6b6457e060405160405180910390a35050565b61279d8061074783390190565b600073ffffffffffffffffffffffffffffffffffffffff82169050919050565b60006105458261051a565b9050919050565b6105558161053a565b82525050565b6000602082019050610570600083018461054c565b92915050565b600080fd5b6105848161053a565b811461058f57600080fd5b50565b6000813590506105a18161057b565b92915050565b6000602082840312156105bd576105bc610576565b5b60006105cb84828501610592565b91505092915050565b6000819050919050565b6105e7816105d4565b81146105f257600080fd5b50565b600081359050610604816105de565b92915050565b6000602082840312156106205761061f610576565b5b600061062e848285016105f5565b91505092915050565b600082825260208201905092915050565b7f4f776e61626c653a2063616c6c6572206973206e6f7420746865206f776e6572600082015250565b600061067e602083610637565b915061068982610648565b602082019050919050565b600060208201905081810360008301526106ad81610671565b9050919050565b7f4f776e61626c653a206e6577206f776e657220697320746865207a65726f206160008201527f6464726573730000000000000000000000000000000000000000000000000000602082015250565b6000610710602683610637565b915061071b826106b4565b604082019050919050565b6000602082019050818103600083015261073f81610703565b905091905056fe60a06040523480156200001157600080fd5b506040516200279d3803806200279d8339818101604052810190620000379190620001cf565b620000576200004b6200009960201b60201c565b620000a160201b60201c565b600180819055508073ffffffffffffffffffffffffffffffffffffffff1660808173ffffffffffffffffffffffffffffffffffffffff16815250505062000201565b600033905090565b60008060009054906101000a900473ffffffffffffffffffffffffffffffffffffffff169050816000806101000a81548173ffffffffffffffffffffffffffffffffffffffff021916908373ffffffffffffffffffffffffffffffffffffffff1602179055508173ffffffffffffffffffffffffffffffffffffffff168173ffffffffffffffffffffffffffffffffffffffff167f8be0079c531659141344cd1fd0a4f28419497f9722a3daafe3b4186f6b6457e060405160405180910390a35050565b600080fd5b600073ffffffffffffffffffffffffffffffffffffffff82169050919050565b600062000197826200016a565b9050919050565b620001a9816200018a565b8114620001b557600080fd5b50565b600081519050620001c9816200019e565b92915050565b600060208284031215620001e857620001e762000165565b5b6000620001f884828501620001b8565b91505092915050565b60805161255d620002406000396000818161050e01528181610646015281816107bc01528181610b60015281816110250152611319015261255d6000f3fe60806040526004361061009c5760003560e01c8063715018a611610064578063715018a6146101825780637c0b8de2146101995780638da5cb5b146101c4578063c5ebeaec146101ef578063f2fde38b1461020b578063fe0d94c1146102345761009c565b8063150b7a02146100a1578063197b1bf5146100de5780633121d95614610107578063371fd8e61461013057806342a8d9bb14610159575b600080fd5b3480156100ad57600080fd5b506100c860048036038101906100c39190611c28565b61025d565b6040516100d59190611ce6565b60405180910390f35b3480156100ea57600080fd5b5061010560048036038101906101009190611d01565b610271565b005b34801561011357600080fd5b5061012e60048036038101906101299190611d2e565b6105df565b005b34801561013c57600080fd5b5061015760048036038101906101529190611d01565b610970565b005b34801561016557600080fd5b50610180600480360381019061017b9190611d2e565b610d45565b005b34801561018e57600080fd5b50610197610f9b565b005b3480156101a557600080fd5b506101ae611023565b6040516101bb9190611da4565b60405180910390f35b3480156101d057600080fd5b506101d9611047565b6040516101e69190611da4565b60405180910390f35b61020960048036038101906102049190611d01565b611070565b005b34801561021757600080fd5b50610232600480360381019061022d9190611dbf565b61144a565b005b34801561024057600080fd5b5061025b60048036038101906102569190611d01565b611542565b005b600063150b7a0260e01b9050949350505050565b600260015414156102b7576040517f08c379a00000000000000000000000000000000000000000000000000000000081526004016102ae90611e49565b60405180910390fd5b60026001819055506000600260008381526020019081526020016000206040518060a00160405290816000820160009054906101000a900460ff161515151581526020016000820160019054906101000a900473ffffffffffffffffffffffffffffffffffffffff1673ffffffffffffffffffffffffffffffffffffffff1673ffffffffffffffffffffffffffffffffffffffff168152602001600182015481526020016002820154815260200160038201548152505090506000151581600001511515146103bb576040517f08c379a00000000000000000000000000000000000000000000000000000000081526004016103b290611eb5565b60405180910390fd5b3373ffffffffffffffffffffffffffffffffffffffff16816020015173ffffffffffffffffffffffffffffffffffffffff161461042d576040517f08c379a000000000000000000000000000000000000000000000000000000000815260040161042490611f21565b60405180910390fd5b6040518060a00160405280600015158152602001600073ffffffffffffffffffffffffffffffffffffffff168152602001600081526020016000815260200160008152506002600084815260200190815260200160002060008201518160000160006101000a81548160ff02191690831515021790555060208201518160000160016101000a81548173ffffffffffffffffffffffffffffffffffffffff021916908373ffffffffffffffffffffffffffffffffffffffff1602179055506040820151816001015560608201518160020155608082015181600301559050507f000000000000000000000000000000000000000000000000000000000000000073ffffffffffffffffffffffffffffffffffffffff166342842e0e3033856040518463ffffffff1660e01b815260040161056993929190611f50565b600060405180830381600087803b15801561058357600080fd5b505af1158015610597573d6000803e3d6000fd5b505050507fb5cc593337b47735072870cc5e1ddb15579c230817de0787ed38f32a2c145cbd82336040516105cc929190611f87565b60405180910390a1506001808190555050565b60026001541415610625576040517f08c379a000000000000000000000000000000000000000000000000000000000815260040161061c90611e49565b60405180910390fd5b60026001819055503373ffffffffffffffffffffffffffffffffffffffff167f000000000000000000000000000000000000000000000000000000000000000073ffffffffffffffffffffffffffffffffffffffff16636352211e866040518263ffffffff1660e01b815260040161069d9190611fb0565b602060405180830381865afa1580156106ba573d6000803e3d6000fd5b505050506040513d601f19601f820116820180604052508101906106de9190611fe0565b73ffffffffffffffffffffffffffffffffffffffff1614610734576040517f08c379a000000000000000000000000000000000000000000000000000000000815260040161072b90612059565b60405180910390fd5b60008311610777576040517f08c379a000000000000000000000000000000000000000000000000000000000815260040161076e906120c5565b60405180910390fd5b600082116107ba576040517f08c379a00000000000000000000000000000000000000000000000000000000081526004016107b190612131565b60405180910390fd5b7f000000000000000000000000000000000000000000000000000000000000000073ffffffffffffffffffffffffffffffffffffffff166342842e0e3330876040518463ffffffff1660e01b815260040161081793929190611f50565b600060405180830381600087803b15801561083157600080fd5b505af1158015610845573d6000803e3d6000fd5b5050505060006040518060a001604052806000151581526020013373ffffffffffffffffffffffffffffffffffffffff168152602001858152602001848152602001838152509050806002600087815260200190815260200160002060008201518160000160006101000a81548160ff02191690831515021790555060208201518160000160016101000a81548173ffffffffffffffffffffffffffffffffffffffff021916908373ffffffffffffffffffffffffffffffffffffffff1602179055506040820151816001015560608201518160020155608082015181600301559050507f9a9b103aecb698f4ff77369e96fd6809cbdc592cd590395fe1822ec46a067078853360405161095a929190611f87565b60405180910390a1506001808190555050505050565b600260015414156109b6576040517f08c379a00000000000000000000000000000000000000000000000000000000081526004016109ad90611e49565b60405180910390fd5b60026001819055506000600260008381526020019081526020016000206040518060a00160405290816000820160009054906101000a900460ff161515151581526020016000820160019054906101000a900473ffffffffffffffffffffffffffffffffffffffff1673ffffffffffffffffffffffffffffffffffffffff1673ffffffffffffffffffffffffffffffffffffffff16815260200160018201548152602001600282015481526020016003820154815250509050600115158160000151151514610aba576040517f08c379a0000000000000000000000000000000000000000000000000000000008152600401610ab19061219d565b60405180910390fd5b3373ffffffffffffffffffffffffffffffffffffffff166003600084815260200190815260200160002060000160009054906101000a900473ffffffffffffffffffffffffffffffffffffffff1673ffffffffffffffffffffffffffffffffffffffff1614610b5e576040517f08c379a0000000000000000000000000000000000000000000000000000000008152600401610b5590612209565b60405180910390fd5b7f000000000000000000000000000000000000000000000000000000000000000073ffffffffffffffffffffffffffffffffffffffff166342842e0e3330856040518463ffffffff1660e01b8152600401610bbb93929190611f50565b600060405180830381600087803b158015610bd557600080fd5b505af1158015610be9573d6000803e3d6000fd5b5050505060006002600084815260200190815260200160002060000160006101000a81548160ff0219169083151502179055506040518060400160405280600073ffffffffffffffffffffffffffffffffffffffff16815260200160008152506003600084815260200190815260200160002060008201518160000160006101000a81548173ffffffffffffffffffffffffffffffffffffffff021916908373ffffffffffffffffffffffffffffffffffffffff160217905550602082015181600101559050503373ffffffffffffffffffffffffffffffffffffffff166108fc82604001519081150290604051600060405180830381858888f19350505050158015610cfa573d6000803e3d6000fd5b507fc030da26557a891f33dbaee473c007cdfa269acb9628d7d12e744ec6923ed2b382338360400151604051610d3293929190612229565b60405180910390a1506001808190555050565b6000600260008681526020019081526020016000206040518060a00160405290816000820160009054906101000a900460ff161515151581526020016000820160019054906101000a900473ffffffffffffffffffffffffffffffffffffffff1673ffffffffffffffffffffffffffffffffffffffff1673ffffffffffffffffffffffffffffffffffffffff16815260200160018201548152602001600282015481526020016003820154815250509050600015158160000151151514610e41576040517f08c379a0000000000000000000000000000000000000000000000000000000008152600401610e3890611eb5565b60405180910390fd5b3373ffffffffffffffffffffffffffffffffffffffff16816020015173ffffffffffffffffffffffffffffffffffffffff1614610eb3576040517f08c379a0000000000000000000000000000000000000000000000000000000008152600401610eaa90611f21565b60405180910390fd5b60006040518060a001604052806000151581526020013373ffffffffffffffffffffffffffffffffffffffff168152602001868152602001858152602001848152509050806002600088815260200190815260200160002060008201518160000160006101000a81548160ff02191690831515021790555060208201518160000160016101000a81548173ffffffffffffffffffffffffffffffffffffffff021916908373ffffffffffffffffffffffffffffffffffffffff160217905550604082015181600101556060820151816002015560808201518160030155905050505050505050565b610fa361196e565b73ffffffffffffffffffffffffffffffffffffffff16610fc1611047565b73ffffffffffffffffffffffffffffffffffffffff1614611017576040517f08c379a000000000000000000000000000000000000000000000000000000000815260040161100e906122ac565b60405180910390fd5b6110216000611976565b565b7f000000000000000000000000000000000000000000000000000000000000000081565b60008060009054906101000a900473ffffffffffffffffffffffffffffffffffffffff16905090565b600260015414156110b6576040517f08c379a00000000000000000000000000000000000000000000000000000000081526004016110ad90611e49565b60405180910390fd5b60026001819055506000600260008381526020019081526020016000206040518060a00160405290816000820160009054906101000a900460ff161515151581526020016000820160019054906101000a900473ffffffffffffffffffffffffffffffffffffffff1673ffffffffffffffffffffffffffffffffffffffff1673ffffffffffffffffffffffffffffffffffffffff168152602001600182015481526020016002820154815260200160038201548152505090506000151581600001511515146111ba576040517f08c379a00000000000000000000000000000000000000000000000000000000081526004016111b190611eb5565b60405180910390fd5b6000816060015111611201576040517f08c379a00000000000000000000000000000000000000000000000000000000081526004016111f890612318565b60405180910390fd5b806080015181604001516112159190612367565b3414611256576040517f08c379a000000000000000000000000000000000000000000000000000000000815260040161124d90612409565b60405180910390fd5b60405180604001604052803373ffffffffffffffffffffffffffffffffffffffff168152602001428152506003600084815260200190815260200160002060008201518160000160006101000a81548173ffffffffffffffffffffffffffffffffffffffff021916908373ffffffffffffffffffffffffffffffffffffffff1602179055506020820151816001015590505060016002600084815260200190815260200160002060000160006101000a81548160ff0219169083151502179055507f000000000000000000000000000000000000000000000000000000000000000073ffffffffffffffffffffffffffffffffffffffff166342842e0e3033856040518463ffffffff1660e01b815260040161137493929190611f50565b600060405180830381600087803b15801561138e57600080fd5b505af11580156113a2573d6000803e3d6000fd5b50505050806080015160046000836020015173ffffffffffffffffffffffffffffffffffffffff1673ffffffffffffffffffffffffffffffffffffffff16815260200190815260200160002060008282546113fd9190612367565b925050819055507fe6cfa82d3ec969b90a4b9829a1257566d7092f05f0f878651326ae1a44e02fdc82333460405161143793929190612229565b60405180910390a1506001808190555050565b61145261196e565b73ffffffffffffffffffffffffffffffffffffffff16611470611047565b73ffffffffffffffffffffffffffffffffffffffff16146114c6576040517f08c379a00000000000000000000000000000000000000000000000000000000081526004016114bd906122ac565b60405180910390fd5b600073ffffffffffffffffffffffffffffffffffffffff168173ffffffffffffffffffffffffffffffffffffffff161415611536576040517f08c379a000000000000000000000000000000000000000000000000000000000815260040161152d9061249b565b60405180910390fd5b61153f81611976565b50565b60026001541415611588576040517f08c379a000000000000000000000000000000000000000000000000000000000815260040161157f90611e49565b60405180910390fd5b60026001819055506000600260008381526020019081526020016000206040518060a00160405290816000820160009054906101000a900460ff161515151581526020016000820160019054906101000a900473ffffffffffffffffffffffffffffffffffffffff1673ffffffffffffffffffffffffffffffffffffffff1673ffffffffffffffffffffffffffffffffffffffff1681526020016001820154815260200160028201548152602001600382015481525050905060011515816000015115151461168c576040517f08c379a00000000000000000000000000000000000000000000000000000000081526004016116839061219d565b60405180910390fd5b3373ffffffffffffffffffffffffffffffffffffffff16816020015173ffffffffffffffffffffffffffffffffffffffff16146116fe576040517f08c379a00000000000000000000000000000000000000000000000000000000081526004016116f590611f21565b60405180910390fd5b42816060015160036000858152602001908152602001600020600101546117259190612367565b1015611766576040517f08c379a000000000000000000000000000000000000000000000000000000000815260040161175d90612507565b60405180910390fd5b6040518060400160405280600073ffffffffffffffffffffffffffffffffffffffff16815260200160008152506003600084815260200190815260200160002060008201518160000160006101000a81548173ffffffffffffffffffffffffffffffffffffffff021916908373ffffffffffffffffffffffffffffffffffffffff160217905550602082015181600101559050506040518060a00160405280600015158152602001600073ffffffffffffffffffffffffffffffffffffffff168152602001600081526020016000815260200160008152506002600084815260200190815260200160002060008201518160000160006101000a81548160ff02191690831515021790555060208201518160000160016101000a81548173ffffffffffffffffffffffffffffffffffffffff021916908373ffffffffffffffffffffffffffffffffffffffff1602179055506040820151816001015560608201518160020155608082015181600301559050503373ffffffffffffffffffffffffffffffffffffffff166108fc82604001519081150290604051600060405180830381858888f19350505050158015611923573d6000803e3d6000fd5b507f21359fc27a7c1e7b9afdaba38f1e2026334ccabffa446955f6a71feb96ed34d28233836040015160405161195b93929190612229565b60405180910390a1506001808190555050565b600033905090565b60008060009054906101000a900473ffffffffffffffffffffffffffffffffffffffff169050816000806101000a81548173ffffffffffffffffffffffffffffffffffffffff021916908373ffffffffffffffffffffffffffffffffffffffff1602179055508173ffffffffffffffffffffffffffffffffffffffff168173ffffffffffffffffffffffffffffffffffffffff167f8be0079c531659141344cd1fd0a4f28419497f9722a3daafe3b4186f6b6457e060405160405180910390a35050565b6000604051905090565b600080fd5b600080fd5b600073ffffffffffffffffffffffffffffffffffffffff82169050919050565b6000611a7982611a4e565b9050919050565b611a8981611a6e565b8114611a9457600080fd5b50565b600081359050611aa681611a80565b92915050565b6000819050919050565b611abf81611aac565b8114611aca57600080fd5b50565b600081359050611adc81611ab6565b92915050565b600080fd5b600080fd5b6000601f19601f8301169050919050565b7f4e487b7100000000000000000000000000000000000000000000000000000000600052604160045260246000fd5b611b3582611aec565b810181811067ffffffffffffffff82111715611b5457611b53611afd565b5b80604052505050565b6000611b67611a3a565b9050611b738282611b2c565b919050565b600067ffffffffffffffff821115611b9357611b92611afd565b5b611b9c82611aec565b9050602081019050919050565b82818337600083830152505050565b6000611bcb611bc684611b78565b611b5d565b905082815260208101848484011115611be757611be6611ae7565b5b611bf2848285611ba9565b509392505050565b600082601f830112611c0f57611c0e611ae2565b5b8135611c1f848260208601611bb8565b91505092915050565b60008060008060808587031215611c4257611c41611a44565b5b6000611c5087828801611a97565b9450506020611c6187828801611a97565b9350506040611c7287828801611acd565b925050606085013567ffffffffffffffff811115611c9357611c92611a49565b5b611c9f87828801611bfa565b91505092959194509250565b60007fffffffff0000000000000000000000000000000000000000000000000000000082169050919050565b611ce081611cab565b82525050565b6000602082019050611cfb6000830184611cd7565b92915050565b600060208284031215611d1757611d16611a44565b5b6000611d2584828501611acd565b91505092915050565b60008060008060808587031215611d4857611d47611a44565b5b6000611d5687828801611acd565b9450506020611d6787828801611acd565b9350506040611d7887828801611acd565b9250506060611d8987828801611acd565b91505092959194509250565b611d9e81611a6e565b82525050565b6000602082019050611db96000830184611d95565b92915050565b600060208284031215611dd557611dd4611a44565b5b6000611de384828501611a97565b91505092915050565b600082825260208201905092915050565b7f5265656e7472616e637947756172643a207265656e7472616e742063616c6c00600082015250565b6000611e33601f83611dec565b9150611e3e82611dfd565b602082019050919050565b60006020820190508181036000830152611e6281611e26565b9050919050565b7f63757272656e7420626f72726f77656400000000000000000000000000000000600082015250565b6000611e9f601083611dec565b9150611eaa82611e69565b602082019050919050565b60006020820190508181036000830152611ece81611e92565b9050919050565b7f6e6f7420746865206f776e657200000000000000000000000000000000000000600082015250565b6000611f0b600d83611dec565b9150611f1682611ed5565b602082019050919050565b60006020820190508181036000830152611f3a81611efe565b9050919050565b611f4a81611aac565b82525050565b6000606082019050611f656000830186611d95565b611f726020830185611d95565b611f7f6040830184611f41565b949350505050565b6000604082019050611f9c6000830185611f41565b611fa96020830184611d95565b9392505050565b6000602082019050611fc56000830184611f41565b92915050565b600081519050611fda81611a80565b92915050565b600060208284031215611ff657611ff5611a44565b5b600061200484828501611fcb565b91505092915050565b7f6d69736d6174636820686f6c6465720000000000000000000000000000000000600082015250565b6000612043600f83611dec565b915061204e8261200d565b602082019050919050565b6000602082019050818103600083015261207281612036565b9050919050565b7f6e6f6e207a65726f207072696365000000000000000000000000000000000000600082015250565b60006120af600e83611dec565b91506120ba82612079565b602082019050919050565b600060208201905081810360008301526120de816120a2565b9050919050565b7f6e6f6e207a65726f207465726d00000000000000000000000000000000000000600082015250565b600061211b600d83611dec565b9150612126826120e5565b602082019050919050565b6000602082019050818103600083015261214a8161210e565b9050919050565b7f6e6f7420626f72726f7765640000000000000000000000000000000000000000600082015250565b6000612187600c83611dec565b915061219282612151565b602082019050919050565b600060208201905081810360008301526121b68161217a565b9050919050565b7f6e6f742064656274657200000000000000000000000000000000000000000000600082015250565b60006121f3600a83611dec565b91506121fe826121bd565b602082019050919050565b60006020820190508181036000830152612222816121e6565b9050919050565b600060608201905061223e6000830186611f41565b61224b6020830185611d95565b6122586040830184611f41565b949350505050565b7f4f776e61626c653a2063616c6c6572206973206e6f7420746865206f776e6572600082015250565b6000612296602083611dec565b91506122a182612260565b602082019050919050565b600060208201905081810360008301526122c581612289565b9050919050565b7f6e6f742076616c69640000000000000000000000000000000000000000000000600082015250565b6000612302600983611dec565b915061230d826122cc565b602082019050919050565b60006020820190508181036000830152612331816122f5565b9050919050565b7f4e487b7100000000000000000000000000000000000000000000000000000000600052601160045260246000fd5b600061237282611aac565b915061237d83611aac565b9250827fffffffffffffffffffffffffffffffffffffffffffffffffffffffffffffffff038211156123b2576123b1612338565b5b828201905092915050565b7f696e636f72726563742076616c75650000000000000000000000000000000000600082015250565b60006123f3600f83611dec565b91506123fe826123bd565b602082019050919050565b60006020820190508181036000830152612422816123e6565b9050919050565b7f4f776e61626c653a206e6577206f776e657220697320746865207a65726f206160008201527f6464726573730000000000000000000000000000000000000000000000000000602082015250565b6000612485602683611dec565b915061249082612429565b604082019050919050565b600060208201905081810360008301526124b481612478565b9050919050565b7f6c6567616c207465726d00000000000000000000000000000000000000000000600082015250565b60006124f1600a83611dec565b91506124fc826124bb565b602082019050919050565b60006020820190508181036000830152612520816124e4565b905091905056fea264697066735822122086a7c637aaa772589439b93913e2701ba31ef2f4cfae43da8284d5f69fe24a9c64736f6c634300080a0033a26469706673582212200dc0788c431e5acd6d6958dcaac45736ca1059af9e379a8c9f3eeccfc59eab8c64736f6c634300080a0033",
  "linkReferences": {},
  "deployedLinkReferences": {}
}