{
  "_format": "hh-sol-artifact-1",
  "contractName": "MyNFT",
  "sourceName": "contracts/NFT.sol",
  "abi": [
    {
      "inputs": [],
      "stateMutability": "nonpayable",
      "type": "constructor"
    },
    {
      "anonymous": false,
      "inputs": [
        {
          "indexed": true,
          "internalType": "address",
          "name": "owner",
          "type": "address"
        },
        {
          "indexed": true,
          "internalType": "address",
          "name": "approved",
          "type": "address"
        },
        {
          "indexed": true,
          "internalType": "uint256",
          "name": "tokenId",
          "type": "uint256"
        }
      ],
      "name": "Approval",
      "type": "event"
    },
    {
      "anonymous": false,
      "inputs": [
        {
          "indexed": true,
          "internalType": "address",
          "name": "owner",
          "type": "address"
        },
        {
          "indexed": true,
          "internalType": "address",
          "name": "operator",
          "type": "address"
        },
        {
          "indexed": false,
          "internalType": "bool",
          "name": "approved",
          "type": "bool"
        }
      ],
      "name": "ApprovalForAll",
      "type": "event"
    },
    {
      "anonymous": false,
      "inputs": [
        {
          "indexed": true,
          "internalType": "address",
          "name": "from",
          "type": "address"
        },
        {
          "indexed": true,
          "internalType": "address",
          "name": "to",
          "type": "address"
        },
        {
          "indexed": true,
          "internalType": "uint256",
          "name": "tokenId",
          "type": "uint256"
        }
      ],
      "name": "Transfer",
      "type": "event"
    },
    {
      "inputs": [
        {
          "internalType": "address",
          "name": "to",
          "type": "address"
        },
        {
          "internalType": "uint256",
          "name": "tokenId",
          "type": "uint256"
        }
      ],
      "name": "approve",
      "outputs": [],
      "stateMutability": "nonpayable",
      "type": "function"
    },
    {
      "inputs": [
        {
          "internalType": "address",
          "name": "owner",
          "type": "address"
        }
      ],
      "name": "balanceOf",
      "outputs": [
        {
          "internalType": "uint256",
          "name": "",
          "type": "uint256"
        }
      ],
      "stateMutability": "view",
      "type": "function"
    },
    {
      "inputs": [
        {
          "internalType": "uint256",
          "name": "tokenId",
          "type": "uint256"
        }
      ],
      "name": "getApproved",
      "outputs": [
        {
          "internalType": "address",
          "name": "",
          "type": "address"
        }
      ],
      "stateMutability": "view",
      "type": "function"
    },
    {
      "inputs": [
        {
          "internalType": "address",
          "name": "owner",
          "type": "address"
        },
        {
          "internalType": "address",
          "name": "operator",
          "type": "address"
        }
      ],
      "name": "isApprovedForAll",
      "outputs": [
        {
          "internalType": "bool",
          "name": "",
          "type": "bool"
        }
      ],
      "stateMutability": "view",
      "type": "function"
    },
    {
      "inputs": [
        {
          "internalType": "address",
          "name": "recipient",
          "type": "address"
        },
        {
          "internalType": "string",
          "name": "_tokenURI",
          "type": "string"
        }
      ],
      "name": "mintNFT",
      "outputs": [
        {
          "internalType": "uint256",
          "name": "",
          "type": "uint256"
        }
      ],
      "stateMutability": "nonpayable",
      "type": "function"
    },
    {
      "inputs": [],
      "name": "name",
      "outputs": [
        {
          "internalType": "string",
          "name": "",
          "type": "string"
        }
      ],
      "stateMutability": "view",
      "type": "function"
    },
    {
      "inputs": [
        {
          "internalType": "uint256",
          "name": "tokenId",
          "type": "uint256"
        }
      ],
      "name": "ownerOf",
      "outputs": [
        {
          "internalType": "address",
          "name": "",
          "type": "address"
        }
      ],
      "stateMutability": "view",
      "type": "function"
    },
    {
      "inputs": [
        {
          "internalType": "address",
          "name": "to",
          "type": "address"
        },
        {
          "internalType": "uint256",
          "name": "tokenId",
          "type": "uint256"
        }
      ],
      "name": "safeMint",
      "outputs": [],
      "stateMutability": "nonpayable",
      "type": "function"
    },
    {
      "inputs": [
        {
          "internalType": "address",
          "name": "from",
          "type": "address"
        },
        {
          "internalType": "address",
          "name": "to",
          "type": "address"
        },
        {
          "internalType": "uint256",
          "name": "tokenId",
          "type": "uint256"
        }
      ],
      "name": "safeTransferFrom",
      "outputs": [],
      "stateMutability": "nonpayable",
      "type": "function"
    },
    {
      "inputs": [
        {
          "internalType": "address",
          "name": "from",
          "type": "address"
        },
        {
          "internalType": "address",
          "name": "to",
          "type": "address"
        },
        {
          "internalType": "uint256",
          "name": "tokenId",
          "type": "uint256"
        },
        {
          "internalType": "bytes",
          "name": "_data",
          "type": "bytes"
        }
      ],
      "name": "safeTransferFrom",
      "outputs": [],
      "stateMutability": "nonpayable",
      "type": "function"
    },
    {
      "inputs": [
        {
          "internalType": "address",
          "name": "operator",
          "type": "address"
        },
        {
          "internalType": "bool",
          "name": "approved",
          "type": "bool"
        }
      ],
      "name": "setApprovalForAll",
      "outputs": [],
      "stateMutability": "nonpayable",
      "type": "function"
    },
    {
      "inputs": [
        {
          "internalType": "bytes4",
          "name": "interfaceId",
          "type": "bytes4"
        }
      ],
      "name": "supportsInterface",
      "outputs": [
        {
          "internalType": "bool",
          "name": "",
          "type": "bool"
        }
      ],
      "stateMutability": "view",
      "type": "function"
    },
    {
      "inputs": [],
      "name": "symbol",
      "outputs": [
        {
          "internalType": "string",
          "name": "",
          "type": "string"
        }
      ],
      "stateMutability": "view",
      "type": "function"
    },
    {
      "inputs": [
        {
          "internalType": "uint256",
          "name": "index",
          "type": "uint256"
        }
      ],
      "name": "tokenByIndex",
      "outputs": [
        {
          "internalType": "uint256",
          "name": "",
          "type": "uint256"
        }
      ],
      "stateMutability": "view",
      "type": "function"
    },
    {
      "inputs": [
        {
          "internalType": "address",
          "name": "owner",
          "type": "address"
        },
        {
          "internalType": "uint256",
          "name": "index",
          "type": "uint256"
        }
      ],
      "name": "tokenOfOwnerByIndex",
      "outputs": [
        {
          "internalType": "uint256",
          "name": "",
          "type": "uint256"
        }
      ],
      "stateMutability": "view",
      "type": "function"
    },
    {
      "inputs": [
        {
          "internalType": "uint256",
          "name": "tokenId",
          "type": "uint256"
        }
      ],
      "name": "tokenURI",
      "outputs": [
        {
          "internalType": "string",
          "name": "",
          "type": "string"
        }
      ],
      "stateMutability": "view",
      "type": "function"
    },
    {
      "inputs": [],
      "name": "totalSupply",
      "outputs": [
        {
          "internalType": "uint256",
          "name": "",
          "type": "uint256"
        }
      ],
      "stateMutability": "view",
      "type": "function"
    },
    {
      "inputs": [
        {
          "internalType": "address",
          "name": "from",
          "type": "address"
        },
        {
          "internalType": "address",
          "name": "to",
          "type": "address"
        },
        {
          "internalType": "uint256",
          "name": "tokenId",
          "type": "uint256"
        }
      ],
      "name": "transferFrom",
      "outputs": [],
      "stateMutability": "nonpayable",
      "type": "function"
    }
  ],
  "bytecode": "0x60806040523480156200001157600080fd5b506040518060400160405280600581526020017f4d794e46540000000000000000000000000000000000000000000000000000008152506040518060400160405280600381526020017f4e46540000000000000000000000000000000000000000000000000000000000815250816000908051906020019062000096929190620000b8565b508060019080519060200190620000af929190620000b8565b505050620001cd565b828054620000c69062000197565b90600052602060002090601f016020900481019282620000ea576000855562000136565b82601f106200010557805160ff191683800117855562000136565b8280016001018555821562000136579182015b828111156200013557825182559160200191906001019062000118565b5b50905062000145919062000149565b5090565b5b80821115620001645760008160009055506001016200014a565b5090565b7f4e487b7100000000000000000000000000000000000000000000000000000000600052602260045260246000fd5b60006002820490506001821680620001b057607f821691505b60208210811415620001c757620001c662000168565b5b50919050565b61344d80620001dd6000396000f3fe608060405234801561001057600080fd5b50600436106101165760003560e01c80636352211e116100a2578063a22cb46511610071578063a22cb46514610305578063b88d4fde14610321578063c87b56dd1461033d578063e985e9c51461036d578063eacabe141461039d57610116565b80636352211e1461026b57806370a082311461029b57806395d89b41146102cb578063a1448194146102e957610116565b806318160ddd116100e957806318160ddd146101b557806323b872dd146101d35780632f745c59146101ef57806342842e0e1461021f5780634f6ccce71461023b57610116565b806301ffc9a71461011b57806306fdde031461014b578063081812fc14610169578063095ea7b314610199575b600080fd5b6101356004803603810190610130919061205c565b6103cd565b60405161014291906120a4565b60405180910390f35b6101536103df565b6040516101609190612158565b60405180910390f35b610183600480360381019061017e91906121b0565b610471565b604051610190919061221e565b60405180910390f35b6101b360048036038101906101ae9190612265565b6104f6565b005b6101bd61060e565b6040516101ca91906122b4565b60405180910390f35b6101ed60048036038101906101e891906122cf565b61061b565b005b61020960048036038101906102049190612265565b61067b565b60405161021691906122b4565b60405180910390f35b610239600480360381019061023491906122cf565b610720565b005b610255600480360381019061025091906121b0565b610740565b60405161026291906122b4565b60405180910390f35b610285600480360381019061028091906121b0565b6107b1565b604051610292919061221e565b60405180910390f35b6102b560048036038101906102b09190612322565b610863565b6040516102c291906122b4565b60405180910390f35b6102d361091b565b6040516102e09190612158565b60405180910390f35b61030360048036038101906102fe9190612265565b6109ad565b005b61031f600480360381019061031a919061237b565b6109bb565b005b61033b600480360381019061033691906124f0565b6109d1565b005b610357600480360381019061035291906121b0565b610a33565b6040516103649190612158565b60405180910390f35b61038760048036038101906103829190612573565b610a45565b60405161039491906120a4565b60405180910390f35b6103b760048036038101906103b29190612654565b610ad9565b6040516103c491906122b4565b60405180910390f35b60006103d882610b11565b9050919050565b6060600080546103ee906126df565b80601f016020809104026020016040519081016040528092919081815260200182805461041a906126df565b80156104675780601f1061043c57610100808354040283529160200191610467565b820191906000526020600020905b81548152906001019060200180831161044a57829003601f168201915b5050505050905090565b600061047c82610b8b565b6104bb576040517f08c379a00000000000000000000000000000000000000000000000000000000081526004016104b290612783565b60405180910390fd5b6004600083815260200190815260200160002060009054906101000a900473ffffffffffffffffffffffffffffffffffffffff169050919050565b6000610501826107b1565b90508073ffffffffffffffffffffffffffffffffffffffff168373ffffffffffffffffffffffffffffffffffffffff161415610572576040517f08c379a000000000000000000000000000000000000000000000000000000000815260040161056990612815565b60405180910390fd5b8073ffffffffffffffffffffffffffffffffffffffff16610591610bf7565b73ffffffffffffffffffffffffffffffffffffffff1614806105c057506105bf816105ba610bf7565b610a45565b5b6105ff576040517f08c379a00000000000000000000000000000000000000000000000000000000081526004016105f6906128a7565b60405180910390fd5b6106098383610bff565b505050565b6000600980549050905090565b61062c610626610bf7565b82610cb8565b61066b576040517f08c379a000000000000000000000000000000000000000000000000000000000815260040161066290612939565b60405180910390fd5b610676838383610d96565b505050565b600061068683610863565b82106106c7576040517f08c379a00000000000000000000000000000000000000000000000000000000081526004016106be906129cb565b60405180910390fd5b600760008473ffffffffffffffffffffffffffffffffffffffff1673ffffffffffffffffffffffffffffffffffffffff168152602001908152602001600020600083815260200190815260200160002054905092915050565b61073b838383604051806020016040528060008152506109d1565b505050565b600061074a61060e565b821061078b576040517f08c379a000000000000000000000000000000000000000000000000000000000815260040161078290612a5d565b60405180910390fd5b6009828154811061079f5761079e612a7d565b5b90600052602060002001549050919050565b6000806002600084815260200190815260200160002060009054906101000a900473ffffffffffffffffffffffffffffffffffffffff169050600073ffffffffffffffffffffffffffffffffffffffff168173ffffffffffffffffffffffffffffffffffffffff16141561085a576040517f08c379a000000000000000000000000000000000000000000000000000000000815260040161085190612b1e565b60405180910390fd5b80915050919050565b60008073ffffffffffffffffffffffffffffffffffffffff168273ffffffffffffffffffffffffffffffffffffffff1614156108d4576040517f08c379a00000000000000000000000000000000000000000000000000000000081526004016108cb90612bb0565b60405180910390fd5b600360008373ffffffffffffffffffffffffffffffffffffffff1673ffffffffffffffffffffffffffffffffffffffff168152602001908152602001600020549050919050565b60606001805461092a906126df565b80601f0160208091040260200160405190810160405280929190818152602001828054610956906126df565b80156109a35780601f10610978576101008083540402835291602001916109a3565b820191906000526020600020905b81548152906001019060200180831161098657829003601f168201915b5050505050905090565b6109b78282610ffd565b5050565b6109cd6109c6610bf7565b838361101b565b5050565b6109e26109dc610bf7565b83610cb8565b610a21576040517f08c379a0000000000000000000000000000000000000000000000000000000008152600401610a1890612939565b60405180910390fd5b610a2d84848484611188565b50505050565b6060610a3e826111e4565b9050919050565b6000600560008473ffffffffffffffffffffffffffffffffffffffff1673ffffffffffffffffffffffffffffffffffffffff16815260200190815260200160002060008373ffffffffffffffffffffffffffffffffffffffff1673ffffffffffffffffffffffffffffffffffffffff16815260200190815260200160002060009054906101000a900460ff16905092915050565b6000610ae5600b611336565b6000610af1600b61134c565b9050610afd848261135a565b610b078184611534565b8091505092915050565b60007f780e9d63000000000000000000000000000000000000000000000000000000007bffffffffffffffffffffffffffffffffffffffffffffffffffffffff1916827bffffffffffffffffffffffffffffffffffffffffffffffffffffffff19161480610b845750610b83826115a8565b5b9050919050565b60008073ffffffffffffffffffffffffffffffffffffffff166002600084815260200190815260200160002060009054906101000a900473ffffffffffffffffffffffffffffffffffffffff1673ffffffffffffffffffffffffffffffffffffffff1614159050919050565b600033905090565b816004600083815260200190815260200160002060006101000a81548173ffffffffffffffffffffffffffffffffffffffff021916908373ffffffffffffffffffffffffffffffffffffffff160217905550808273ffffffffffffffffffffffffffffffffffffffff16610c72836107b1565b73ffffffffffffffffffffffffffffffffffffffff167f8c5be1e5ebec7d5bd14f71427d1e84f3dd0314c0f7b2291e5b200ac8c7c3b92560405160405180910390a45050565b6000610cc382610b8b565b610d02576040517f08c379a0000000000000000000000000000000000000000000000000000000008152600401610cf990612c42565b60405180910390fd5b6000610d0d836107b1565b90508073ffffffffffffffffffffffffffffffffffffffff168473ffffffffffffffffffffffffffffffffffffffff161480610d4f5750610d4e8185610a45565b5b80610d8d57508373ffffffffffffffffffffffffffffffffffffffff16610d7584610471565b73ffffffffffffffffffffffffffffffffffffffff16145b91505092915050565b8273ffffffffffffffffffffffffffffffffffffffff16610db6826107b1565b73ffffffffffffffffffffffffffffffffffffffff1614610e0c576040517f08c379a0000000000000000000000000000000000000000000000000000000008152600401610e0390612cd4565b60405180910390fd5b600073ffffffffffffffffffffffffffffffffffffffff168273ffffffffffffffffffffffffffffffffffffffff161415610e7c576040517f08c379a0000000000000000000000000000000000000000000000000000000008152600401610e7390612d66565b60405180910390fd5b610e8783838361168a565b610e92600082610bff565b6001600360008573ffffffffffffffffffffffffffffffffffffffff1673ffffffffffffffffffffffffffffffffffffffff1681526020019081526020016000206000828254610ee29190612db5565b925050819055506001600360008473ffffffffffffffffffffffffffffffffffffffff1673ffffffffffffffffffffffffffffffffffffffff1681526020019081526020016000206000828254610f399190612de9565b92505081905550816002600083815260200190815260200160002060006101000a81548173ffffffffffffffffffffffffffffffffffffffff021916908373ffffffffffffffffffffffffffffffffffffffff160217905550808273ffffffffffffffffffffffffffffffffffffffff168473ffffffffffffffffffffffffffffffffffffffff167fddf252ad1be2c89b69c2b068fc378daa952ba7f163c4a11628f55a4df523b3ef60405160405180910390a4610ff883838361169a565b505050565b61101782826040518060200160405280600081525061169f565b5050565b8173ffffffffffffffffffffffffffffffffffffffff168373ffffffffffffffffffffffffffffffffffffffff16141561108a576040517f08c379a000000000000000000000000000000000000000000000000000000000815260040161108190612e8b565b60405180910390fd5b80600560008573ffffffffffffffffffffffffffffffffffffffff1673ffffffffffffffffffffffffffffffffffffffff16815260200190815260200160002060008473ffffffffffffffffffffffffffffffffffffffff1673ffffffffffffffffffffffffffffffffffffffff16815260200190815260200160002060006101000a81548160ff0219169083151502179055508173ffffffffffffffffffffffffffffffffffffffff168373ffffffffffffffffffffffffffffffffffffffff167f17307eab39ab6107e8899845ad3d59bd9653f200f220920489ca2b5937696c318360405161117b91906120a4565b60405180910390a3505050565b611193848484610d96565b61119f848484846116fa565b6111de576040517f08c379a00000000000000000000000000000000000000000000000000000000081526004016111d590612f1d565b60405180910390fd5b50505050565b60606111ef82610b8b565b61122e576040517f08c379a000000000000000000000000000000000000000000000000000000000815260040161122590612faf565b60405180910390fd5b600060066000848152602001908152602001600020805461124e906126df565b80601f016020809104026020016040519081016040528092919081815260200182805461127a906126df565b80156112c75780601f1061129c576101008083540402835291602001916112c7565b820191906000526020600020905b8154815290600101906020018083116112aa57829003601f168201915b5050505050905060006112d8611882565b90506000815114156112ee578192505050611331565b60008251111561132357808260405160200161130b92919061300b565b60405160208183030381529060405292505050611331565b61132c84611899565b925050505b919050565b6001816000016000828254019250508190555050565b600081600001549050919050565b600073ffffffffffffffffffffffffffffffffffffffff168273ffffffffffffffffffffffffffffffffffffffff1614156113ca576040517f08c379a00000000000000000000000000000000000000000000000000000000081526004016113c19061307b565b60405180910390fd5b6113d381610b8b565b15611413576040517f08c379a000000000000000000000000000000000000000000000000000000000815260040161140a906130e7565b60405180910390fd5b61141f6000838361168a565b6001600360008473ffffffffffffffffffffffffffffffffffffffff1673ffffffffffffffffffffffffffffffffffffffff168152602001908152602001600020600082825461146f9190612de9565b92505081905550816002600083815260200190815260200160002060006101000a81548173ffffffffffffffffffffffffffffffffffffffff021916908373ffffffffffffffffffffffffffffffffffffffff160217905550808273ffffffffffffffffffffffffffffffffffffffff16600073ffffffffffffffffffffffffffffffffffffffff167fddf252ad1be2c89b69c2b068fc378daa952ba7f163c4a11628f55a4df523b3ef60405160405180910390a46115306000838361169a565b5050565b61153d82610b8b565b61157c576040517f08c379a000000000000000000000000000000000000000000000000000000000815260040161157390613179565b60405180910390fd5b806006600084815260200190815260200160002090805190602001906115a3929190611f4d565b505050565b60007f80ac58cd000000000000000000000000000000000000000000000000000000007bffffffffffffffffffffffffffffffffffffffffffffffffffffffff1916827bffffffffffffffffffffffffffffffffffffffffffffffffffffffff1916148061167357507f5b5e139f000000000000000000000000000000000000000000000000000000007bffffffffffffffffffffffffffffffffffffffffffffffffffffffff1916827bffffffffffffffffffffffffffffffffffffffffffffffffffffffff1916145b80611683575061168282611940565b5b9050919050565b6116958383836119aa565b505050565b505050565b6116a9838361135a565b6116b660008484846116fa565b6116f5576040517f08c379a00000000000000000000000000000000000000000000000000000000081526004016116ec90612f1d565b60405180910390fd5b505050565b600061171b8473ffffffffffffffffffffffffffffffffffffffff16611abe565b15611875578373ffffffffffffffffffffffffffffffffffffffff1663150b7a02611744610bf7565b8786866040518563ffffffff1660e01b815260040161176694939291906131ee565b6020604051808303816000875af19250505080156117a257506040513d601f19601f8201168201806040525081019061179f919061324f565b60015b611825573d80600081146117d2576040519150601f19603f3d011682016040523d82523d6000602084013e6117d7565b606091505b5060008151141561181d576040517f08c379a000000000000000000000000000000000000000000000000000000000815260040161181490612f1d565b60405180910390fd5b805181602001fd5b63150b7a0260e01b7bffffffffffffffffffffffffffffffffffffffffffffffffffffffff1916817bffffffffffffffffffffffffffffffffffffffffffffffffffffffff19161491505061187a565b600190505b949350505050565b606060405180602001604052806000815250905090565b60606118a482610b8b565b6118e3576040517f08c379a00000000000000000000000000000000000000000000000000000000081526004016118da906132ee565b60405180910390fd5b60006118ed611882565b9050600081511161190d5760405180602001604052806000815250611938565b8061191784611ae1565b60405160200161192892919061300b565b6040516020818303038152906040525b915050919050565b60007f01ffc9a7000000000000000000000000000000000000000000000000000000007bffffffffffffffffffffffffffffffffffffffffffffffffffffffff1916827bffffffffffffffffffffffffffffffffffffffffffffffffffffffff1916149050919050565b6119b5838383611c42565b600073ffffffffffffffffffffffffffffffffffffffff168373ffffffffffffffffffffffffffffffffffffffff1614156119f8576119f381611c47565b611a37565b8173ffffffffffffffffffffffffffffffffffffffff168373ffffffffffffffffffffffffffffffffffffffff1614611a3657611a358382611c90565b5b5b600073ffffffffffffffffffffffffffffffffffffffff168273ffffffffffffffffffffffffffffffffffffffff161415611a7a57611a7581611dfd565b611ab9565b8273ffffffffffffffffffffffffffffffffffffffff168273ffffffffffffffffffffffffffffffffffffffff1614611ab857611ab78282611ece565b5b5b505050565b6000808273ffffffffffffffffffffffffffffffffffffffff163b119050919050565b60606000821415611b29576040518060400160405280600181526020017f30000000000000000000000000000000000000000000000000000000000000008152509050611c3d565b600082905060005b60008214611b5b578080611b449061330e565b915050600a82611b549190613386565b9150611b31565b60008167ffffffffffffffff811115611b7757611b766123c5565b5b6040519080825280601f01601f191660200182016040528015611ba95781602001600182028036833780820191505090505b5090505b60008514611c3657600182611bc29190612db5565b9150600a85611bd191906133b7565b6030611bdd9190612de9565b60f81b818381518110611bf357611bf2612a7d565b5b60200101907effffffffffffffffffffffffffffffffffffffffffffffffffffffffffffff1916908160001a905350600a85611c2f9190613386565b9450611bad565b8093505050505b919050565b505050565b600980549050600a600083815260200190815260200160002081905550600981908060018154018082558091505060019003906000526020600020016000909190919091505550565b60006001611c9d84610863565b611ca79190612db5565b9050600060086000848152602001908152602001600020549050818114611d8c576000600760008673ffffffffffffffffffffffffffffffffffffffff1673ffffffffffffffffffffffffffffffffffffffff168152602001908152602001600020600084815260200190815260200160002054905080600760008773ffffffffffffffffffffffffffffffffffffffff1673ffffffffffffffffffffffffffffffffffffffff168152602001908152602001600020600084815260200190815260200160002081905550816008600083815260200190815260200160002081905550505b6008600084815260200190815260200160002060009055600760008573ffffffffffffffffffffffffffffffffffffffff1673ffffffffffffffffffffffffffffffffffffffff16815260200190815260200160002060008381526020019081526020016000206000905550505050565b60006001600980549050611e119190612db5565b90506000600a6000848152602001908152602001600020549050600060098381548110611e4157611e40612a7d565b5b906000526020600020015490508060098381548110611e6357611e62612a7d565b5b906000526020600020018190555081600a600083815260200190815260200160002081905550600a6000858152602001908152602001600020600090556009805480611eb257611eb16133e8565b5b6001900381819060005260206000200160009055905550505050565b6000611ed983610863565b905081600760008573ffffffffffffffffffffffffffffffffffffffff1673ffffffffffffffffffffffffffffffffffffffff168152602001908152602001600020600083815260200190815260200160002081905550806008600084815260200190815260200160002081905550505050565b828054611f59906126df565b90600052602060002090601f016020900481019282611f7b5760008555611fc2565b82601f10611f9457805160ff1916838001178555611fc2565b82800160010185558215611fc2579182015b82811115611fc1578251825591602001919060010190611fa6565b5b509050611fcf9190611fd3565b5090565b5b80821115611fec576000816000905550600101611fd4565b5090565b6000604051905090565b600080fd5b600080fd5b60007fffffffff0000000000000000000000000000000000000000000000000000000082169050919050565b61203981612004565b811461204457600080fd5b50565b60008135905061205681612030565b92915050565b60006020828403121561207257612071611ffa565b5b600061208084828501612047565b91505092915050565b60008115159050919050565b61209e81612089565b82525050565b60006020820190506120b96000830184612095565b92915050565b600081519050919050565b600082825260208201905092915050565b60005b838110156120f95780820151818401526020810190506120de565b83811115612108576000848401525b50505050565b6000601f19601f8301169050919050565b600061212a826120bf565b61213481856120ca565b93506121448185602086016120db565b61214d8161210e565b840191505092915050565b60006020820190508181036000830152612172818461211f565b905092915050565b6000819050919050565b61218d8161217a565b811461219857600080fd5b50565b6000813590506121aa81612184565b92915050565b6000602082840312156121c6576121c5611ffa565b5b60006121d48482850161219b565b91505092915050565b600073ffffffffffffffffffffffffffffffffffffffff82169050919050565b6000612208826121dd565b9050919050565b612218816121fd565b82525050565b6000602082019050612233600083018461220f565b92915050565b612242816121fd565b811461224d57600080fd5b50565b60008135905061225f81612239565b92915050565b6000806040838503121561227c5761227b611ffa565b5b600061228a85828601612250565b925050602061229b8582860161219b565b9150509250929050565b6122ae8161217a565b82525050565b60006020820190506122c960008301846122a5565b92915050565b6000806000606084860312156122e8576122e7611ffa565b5b60006122f686828701612250565b935050602061230786828701612250565b92505060406123188682870161219b565b9150509250925092565b60006020828403121561233857612337611ffa565b5b600061234684828501612250565b91505092915050565b61235881612089565b811461236357600080fd5b50565b6000813590506123758161234f565b92915050565b6000806040838503121561239257612391611ffa565b5b60006123a085828601612250565b92505060206123b185828601612366565b9150509250929050565b600080fd5b600080fd5b7f4e487b7100000000000000000000000000000000000000000000000000000000600052604160045260246000fd5b6123fd8261210e565b810181811067ffffffffffffffff8211171561241c5761241b6123c5565b5b80604052505050565b600061242f611ff0565b905061243b82826123f4565b919050565b600067ffffffffffffffff82111561245b5761245a6123c5565b5b6124648261210e565b9050602081019050919050565b82818337600083830152505050565b600061249361248e84612440565b612425565b9050828152602081018484840111156124af576124ae6123c0565b5b6124ba848285612471565b509392505050565b600082601f8301126124d7576124d66123bb565b5b81356124e7848260208601612480565b91505092915050565b6000806000806080858703121561250a57612509611ffa565b5b600061251887828801612250565b945050602061252987828801612250565b935050604061253a8782880161219b565b925050606085013567ffffffffffffffff81111561255b5761255a611fff565b5b612567878288016124c2565b91505092959194509250565b6000806040838503121561258a57612589611ffa565b5b600061259885828601612250565b92505060206125a985828601612250565b9150509250929050565b600067ffffffffffffffff8211156125ce576125cd6123c5565b5b6125d78261210e565b9050602081019050919050565b60006125f76125f2846125b3565b612425565b905082815260208101848484011115612613576126126123c0565b5b61261e848285612471565b509392505050565b600082601f83011261263b5761263a6123bb565b5b813561264b8482602086016125e4565b91505092915050565b6000806040838503121561266b5761266a611ffa565b5b600061267985828601612250565b925050602083013567ffffffffffffffff81111561269a57612699611fff565b5b6126a685828601612626565b9150509250929050565b7f4e487b7100000000000000000000000000000000000000000000000000000000600052602260045260246000fd5b600060028204905060018216806126f757607f821691505b6020821081141561270b5761270a6126b0565b5b50919050565b7f4552433732313a20617070726f76656420717565727920666f72206e6f6e657860008201527f697374656e7420746f6b656e0000000000000000000000000000000000000000602082015250565b600061276d602c836120ca565b915061277882612711565b604082019050919050565b6000602082019050818103600083015261279c81612760565b9050919050565b7f4552433732313a20617070726f76616c20746f2063757272656e74206f776e6560008201527f7200000000000000000000000000000000000000000000000000000000000000602082015250565b60006127ff6021836120ca565b915061280a826127a3565b604082019050919050565b6000602082019050818103600083015261282e816127f2565b9050919050565b7f4552433732313a20617070726f76652063616c6c6572206973206e6f74206f7760008201527f6e6572206e6f7220617070726f76656420666f7220616c6c0000000000000000602082015250565b60006128916038836120ca565b915061289c82612835565b604082019050919050565b600060208201905081810360008301526128c081612884565b9050919050565b7f4552433732313a207472616e736665722063616c6c6572206973206e6f74206f60008201527f776e6572206e6f7220617070726f766564000000000000000000000000000000602082015250565b60006129236031836120ca565b915061292e826128c7565b604082019050919050565b6000602082019050818103600083015261295281612916565b9050919050565b7f455243373231456e756d657261626c653a206f776e657220696e646578206f7560008201527f74206f6620626f756e6473000000000000000000000000000000000000000000602082015250565b60006129b5602b836120ca565b91506129c082612959565b604082019050919050565b600060208201905081810360008301526129e4816129a8565b9050919050565b7f455243373231456e756d657261626c653a20676c6f62616c20696e646578206f60008201527f7574206f6620626f756e64730000000000000000000000000000000000000000602082015250565b6000612a47602c836120ca565b9150612a52826129eb565b604082019050919050565b60006020820190508181036000830152612a7681612a3a565b9050919050565b7f4e487b7100000000000000000000000000000000000000000000000000000000600052603260045260246000fd5b7f4552433732313a206f776e657220717565727920666f72206e6f6e657869737460008201527f656e7420746f6b656e0000000000000000000000000000000000000000000000602082015250565b6000612b086029836120ca565b9150612b1382612aac565b604082019050919050565b60006020820190508181036000830152612b3781612afb565b9050919050565b7f4552433732313a2062616c616e636520717565727920666f7220746865207a6560008201527f726f206164647265737300000000000000000000000000000000000000000000602082015250565b6000612b9a602a836120ca565b9150612ba582612b3e565b604082019050919050565b60006020820190508181036000830152612bc981612b8d565b9050919050565b7f4552433732313a206f70657261746f7220717565727920666f72206e6f6e657860008201527f697374656e7420746f6b656e0000000000000000000000000000000000000000602082015250565b6000612c2c602c836120ca565b9150612c3782612bd0565b604082019050919050565b60006020820190508181036000830152612c5b81612c1f565b9050919050565b7f4552433732313a207472616e736665722066726f6d20696e636f72726563742060008201527f6f776e6572000000000000000000000000000000000000000000000000000000602082015250565b6000612cbe6025836120ca565b9150612cc982612c62565b604082019050919050565b60006020820190508181036000830152612ced81612cb1565b9050919050565b7f4552433732313a207472616e7366657220746f20746865207a65726f2061646460008201527f7265737300000000000000000000000000000000000000000000000000000000602082015250565b6000612d506024836120ca565b9150612d5b82612cf4565b604082019050919050565b60006020820190508181036000830152612d7f81612d43565b9050919050565b7f4e487b7100000000000000000000000000000000000000000000000000000000600052601160045260246000fd5b6000612dc08261217a565b9150612dcb8361217a565b925082821015612dde57612ddd612d86565b5b828203905092915050565b6000612df48261217a565b9150612dff8361217a565b9250827fffffffffffffffffffffffffffffffffffffffffffffffffffffffffffffffff03821115612e3457612e33612d86565b5b828201905092915050565b7f4552433732313a20617070726f766520746f2063616c6c657200000000000000600082015250565b6000612e756019836120ca565b9150612e8082612e3f565b602082019050919050565b60006020820190508181036000830152612ea481612e68565b9050919050565b7f4552433732313a207472616e7366657220746f206e6f6e20455243373231526560008201527f63656976657220696d706c656d656e7465720000000000000000000000000000602082015250565b6000612f076032836120ca565b9150612f1282612eab565b604082019050919050565b60006020820190508181036000830152612f3681612efa565b9050919050565b7f45524337323155524953746f726167653a2055524920717565727920666f722060008201527f6e6f6e6578697374656e7420746f6b656e000000000000000000000000000000602082015250565b6000612f996031836120ca565b9150612fa482612f3d565b604082019050919050565b60006020820190508181036000830152612fc881612f8c565b9050919050565b600081905092915050565b6000612fe5826120bf565b612fef8185612fcf565b9350612fff8185602086016120db565b80840191505092915050565b60006130178285612fda565b91506130238284612fda565b91508190509392505050565b7f4552433732313a206d696e7420746f20746865207a65726f2061646472657373600082015250565b60006130656020836120ca565b91506130708261302f565b602082019050919050565b6000602082019050818103600083015261309481613058565b9050919050565b7f4552433732313a20746f6b656e20616c7265616479206d696e74656400000000600082015250565b60006130d1601c836120ca565b91506130dc8261309b565b602082019050919050565b60006020820190508181036000830152613100816130c4565b9050919050565b7f45524337323155524953746f726167653a2055524920736574206f66206e6f6e60008201527f6578697374656e7420746f6b656e000000000000000000000000000000000000602082015250565b6000613163602e836120ca565b915061316e82613107565b604082019050919050565b6000602082019050818103600083015261319281613156565b9050919050565b600081519050919050565b600082825260208201905092915050565b60006131c082613199565b6131ca81856131a4565b93506131da8185602086016120db565b6131e38161210e565b840191505092915050565b6000608082019050613203600083018761220f565b613210602083018661220f565b61321d60408301856122a5565b818103606083015261322f81846131b5565b905095945050505050565b60008151905061324981612030565b92915050565b60006020828403121561326557613264611ffa565b5b60006132738482850161323a565b91505092915050565b7f4552433732314d657461646174613a2055524920717565727920666f72206e6f60008201527f6e6578697374656e7420746f6b656e0000000000000000000000000000000000602082015250565b60006132d8602f836120ca565b91506132e38261327c565b604082019050919050565b60006020820190508181036000830152613307816132cb565b9050919050565b60006133198261217a565b91507fffffffffffffffffffffffffffffffffffffffffffffffffffffffffffffffff82141561334c5761334b612d86565b5b600182019050919050565b7f4e487b7100000000000000000000000000000000000000000000000000000000600052601260045260246000fd5b60006133918261217a565b915061339c8361217a565b9250826133ac576133ab613357565b5b828204905092915050565b60006133c28261217a565b91506133cd8361217a565b9250826133dd576133dc613357565b5b828206905092915050565b7f4e487b7100000000000000000000000000000000000000000000000000000000600052603160045260246000fdfea2646970667358221220f6163b0eec67644d3430f67e7f63e7bc12a9ab15cbf1dc1e291f60b10a4751a264736f6c634300080a0033",
  "linkReferences": {},
  "deployedLinkReferences": {}
}