{
  "_format": "hh-sol-artifact-1",
  "contractName": "NFTLend",
  "sourceName": "contracts/Lending.sol",
  "abi": [
    {
      "inputs": [
        {
          "internalType": "address",
          "name": "NFT_",
          "type": "address"
        }
      ],
      "stateMutability": "nonpayable",
      "type": "constructor"
    },
    {
      "anonymous": false,
      "inputs": [
        {
          "indexed": false,
          "internalType": "uint256",
          "name": "id",
          "type": "uint256"
        },
        {
          "indexed": false,
          "internalType": "address",
          "name": "sender",
          "type": "address"
        },
        {
          "indexed": false,
          "internalType": "uint256",
          "name": "amount",
          "type": "uint256"
        }
      ],
      "name": "Borrow",
      "type": "event"
    },
    {
      "anonymous": false,
      "inputs": [
        {
          "indexed": false,
          "internalType": "uint256",
          "name": "id",
          "type": "uint256"
        },
        {
          "indexed": false,
          "internalType": "address",
          "name": "executor",
          "type": "address"
        },
        {
          "indexed": false,
          "internalType": "uint256",
          "name": "amount",
          "type": "uint256"
        }
      ],
      "name": "Execute",
      "type": "event"
    },
    {
      "anonymous": false,
      "inputs": [
        {
          "indexed": false,
          "internalType": "uint256",
          "name": "id",
          "type": "uint256"
        },
        {
          "indexed": false,
          "internalType": "address",
          "name": "sender",
          "type": "address"
        }
      ],
      "name": "Lend",
      "type": "event"
    },
    {
      "anonymous": false,
      "inputs": [
        {
          "indexed": true,
          "internalType": "address",
          "name": "previousOwner",
          "type": "address"
        },
        {
          "indexed": true,
          "internalType": "address",
          "name": "newOwner",
          "type": "address"
        }
      ],
      "name": "OwnershipTransferred",
      "type": "event"
    },
    {
      "anonymous": false,
      "inputs": [
        {
          "indexed": false,
          "internalType": "uint256",
          "name": "id",
          "type": "uint256"
        },
        {
          "indexed": false,
          "internalType": "address",
          "name": "sender",
          "type": "address"
        },
        {
          "indexed": false,
          "internalType": "uint256",
          "name": "amount",
          "type": "uint256"
        }
      ],
      "name": "Repay",
      "type": "event"
    },
    {
      "anonymous": false,
      "inputs": [
        {
          "indexed": false,
          "internalType": "uint256",
          "name": "id",
          "type": "uint256"
        },
        {
          "indexed": false,
          "internalType": "address",
          "name": "sender",
          "type": "address"
        }
      ],
      "name": "unLend",
      "type": "event"
    },
    {
      "inputs": [],
      "name": "NFT",
      "outputs": [
        {
          "internalType": "address",
          "name": "",
          "type": "address"
        }
      ],
      "stateMutability": "view",
      "type": "function"
    },
    {
      "inputs": [
        {
          "internalType": "uint256",
          "name": "_id",
          "type": "uint256"
        }
      ],
      "name": "borrow",
      "outputs": [],
      "stateMutability": "payable",
      "type": "function"
    },
    {
      "inputs": [
        {
          "internalType": "uint256",
          "name": "",
          "type": "uint256"
        }
      ],
      "name": "debt",
      "outputs": [
        {
          "internalType": "address",
          "name": "addr",
          "type": "address"
        },
        {
          "internalType": "uint256",
          "name": "startingTime",
          "type": "uint256"
        }
      ],
      "stateMutability": "view",
      "type": "function"
    },
    {
      "inputs": [
        {
          "internalType": "address",
          "name": "",
          "type": "address"
        }
      ],
      "name": "earning",
      "outputs": [
        {
          "internalType": "uint256",
          "name": "",
          "type": "uint256"
        }
      ],
      "stateMutability": "view",
      "type": "function"
    },
    {
      "inputs": [
        {
          "internalType": "uint256",
          "name": "_id",
          "type": "uint256"
        }
      ],
      "name": "execute",
      "outputs": [],
      "stateMutability": "nonpayable",
      "type": "function"
    },
    {
      "inputs": [
        {
          "internalType": "uint256",
          "name": "_id",
          "type": "uint256"
        },
        {
          "internalType": "uint256",
          "name": "_price",
          "type": "uint256"
        },
        {
          "internalType": "uint256",
          "name": "_term",
          "type": "uint256"
        },
        {
          "internalType": "uint256",
          "name": "_premium",
          "type": "uint256"
        }
      ],
      "name": "lend",
      "outputs": [],
      "stateMutability": "nonpayable",
      "type": "function"
    },
    {
      "inputs": [
        {
          "internalType": "uint256",
          "name": "",
          "type": "uint256"
        }
      ],
      "name": "listing",
      "outputs": [
        {
          "internalType": "bool",
          "name": "borrowed",
          "type": "bool"
        },
        {
          "internalType": "address",
          "name": "owner",
          "type": "address"
        },
        {
          "internalType": "uint256",
          "name": "price",
          "type": "uint256"
        },
        {
          "internalType": "uint256",
          "name": "term",
          "type": "uint256"
        },
        {
          "internalType": "uint256",
          "name": "premium",
          "type": "uint256"
        }
      ],
      "stateMutability": "view",
      "type": "function"
    },
    {
      "inputs": [
        {
          "internalType": "address",
          "name": "",
          "type": "address"
        },
        {
          "internalType": "address",
          "name": "",
          "type": "address"
        },
        {
          "internalType": "uint256",
          "name": "",
          "type": "uint256"
        },
        {
          "internalType": "bytes",
          "name": "",
          "type": "bytes"
        }
      ],
      "name": "onERC721Received",
      "outputs": [
        {
          "internalType": "bytes4",
          "name": "",
          "type": "bytes4"
        }
      ],
      "stateMutability": "nonpayable",
      "type": "function"
    },
    {
      "inputs": [],
      "name": "owner",
      "outputs": [
        {
          "internalType": "address",
          "name": "",
          "type": "address"
        }
      ],
      "stateMutability": "view",
      "type": "function"
    },
    {
      "inputs": [],
      "name": "renounceOwnership",
      "outputs": [],
      "stateMutability": "nonpayable",
      "type": "function"
    },
    {
      "inputs": [
        {
          "internalType": "uint256",
          "name": "_id",
          "type": "uint256"
        }
      ],
      "name": "repay",
      "outputs": [],
      "stateMutability": "nonpayable",
      "type": "function"
    },
    {
      "inputs": [
        {
          "internalType": "address",
          "name": "newOwner",
          "type": "address"
        }
      ],
      "name": "transferOwnership",
      "outputs": [],
      "stateMutability": "nonpayable",
      "type": "function"
    },
    {
      "inputs": [
        {
          "internalType": "uint256",
          "name": "_id",
          "type": "uint256"
        }
      ],
      "name": "unlend",
      "outputs": [],
      "stateMutability": "nonpayable",
      "type": "function"
    },
    {
      "inputs": [
        {
          "internalType": "uint256",
          "name": "_id",
          "type": "uint256"
        },
        {
          "internalType": "uint256",
          "name": "_price",
          "type": "uint256"
        },
        {
          "internalType": "uint256",
          "name": "_term",
          "type": "uint256"
        },
        {
          "internalType": "uint256",
          "name": "_premium",
          "type": "uint256"
        }
      ],
      "name": "updateLend",
      "outputs": [],
      "stateMutability": "nonpayable",
      "type": "function"
    }
  ],
  "bytecode": "0x60a06040523480156200001157600080fd5b50604051620029f0380380620029f08339818101604052810190620000379190620001cf565b620000576200004b6200009960201b60201c565b620000a160201b60201c565b600180819055508073ffffffffffffffffffffffffffffffffffffffff1660808173ffffffffffffffffffffffffffffffffffffffff16815250505062000201565b600033905090565b60008060009054906101000a900473ffffffffffffffffffffffffffffffffffffffff169050816000806101000a81548173ffffffffffffffffffffffffffffffffffffffff021916908373ffffffffffffffffffffffffffffffffffffffff1602179055508173ffffffffffffffffffffffffffffffffffffffff168173ffffffffffffffffffffffffffffffffffffffff167f8be0079c531659141344cd1fd0a4f28419497f9722a3daafe3b4186f6b6457e060405160405180910390a35050565b600080fd5b600073ffffffffffffffffffffffffffffffffffffffff82169050919050565b600062000197826200016a565b9050919050565b620001a9816200018a565b8114620001b557600080fd5b50565b600081519050620001c9816200019e565b92915050565b600060208284031215620001e857620001e762000165565b5b6000620001f884828501620001b8565b91505092915050565b6080516127b0620002406000396000818161060b01528181610787015281816108fd01528181610ca10152818161116601526114bd01526127b06000f3fe6080604052600436106100dd5760003560e01c80637c0b8de21161007f578063c5ebeaec11610059578063c5ebeaec146102af578063f2fde38b146102cb578063f4c0fab4146102f4578063fe0d94c114610331576100dd565b80637c0b8de21461021857806384a184de146102435780638da5cb5b14610284576100dd565b80633121d956116100bb5780633121d95614610186578063371fd8e6146101af57806342a8d9bb146101d8578063715018a614610201576100dd565b8063150b7a02146100e2578063197b1bf51461011f5780631e0029c814610148575b600080fd5b3480156100ee57600080fd5b5061010960048036038101906101049190611de4565b61035a565b6040516101169190611ea2565b60405180910390f35b34801561012b57600080fd5b5061014660048036038101906101419190611ebd565b61036e565b005b34801561015457600080fd5b5061016f600480360381019061016a9190611ebd565b6106dc565b60405161017d929190611f08565b60405180910390f35b34801561019257600080fd5b506101ad60048036038101906101a89190611f31565b610720565b005b3480156101bb57600080fd5b506101d660048036038101906101d19190611ebd565b610ab1565b005b3480156101e457600080fd5b506101ff60048036038101906101fa9190611f31565b610e86565b005b34801561020d57600080fd5b506102166110dc565b005b34801561022457600080fd5b5061022d611164565b60405161023a9190611f98565b60405180910390f35b34801561024f57600080fd5b5061026a60048036038101906102659190611ebd565b611188565b60405161027b959493929190611fce565b60405180910390f35b34801561029057600080fd5b506102996111eb565b6040516102a69190611f98565b60405180910390f35b6102c960048036038101906102c49190611ebd565b611214565b005b3480156102d757600080fd5b506102f260048036038101906102ed9190612021565b6115ee565b005b34801561030057600080fd5b5061031b60048036038101906103169190612021565b6116e6565b604051610328919061204e565b60405180910390f35b34801561033d57600080fd5b5061035860048036038101906103539190611ebd565b6116fe565b005b600063150b7a0260e01b9050949350505050565b600260015414156103b4576040517f08c379a00000000000000000000000000000000000000000000000000000000081526004016103ab906120c6565b60405180910390fd5b60026001819055506000600260008381526020019081526020016000206040518060a00160405290816000820160009054906101000a900460ff161515151581526020016000820160019054906101000a900473ffffffffffffffffffffffffffffffffffffffff1673ffffffffffffffffffffffffffffffffffffffff1673ffffffffffffffffffffffffffffffffffffffff168152602001600182015481526020016002820154815260200160038201548152505090506000151581600001511515146104b8576040517f08c379a00000000000000000000000000000000000000000000000000000000081526004016104af90612132565b60405180910390fd5b3373ffffffffffffffffffffffffffffffffffffffff16816020015173ffffffffffffffffffffffffffffffffffffffff161461052a576040517f08c379a00000000000000000000000000000000000000000000000000000000081526004016105219061219e565b60405180910390fd5b6040518060a00160405280600015158152602001600073ffffffffffffffffffffffffffffffffffffffff168152602001600081526020016000815260200160008152506002600084815260200190815260200160002060008201518160000160006101000a81548160ff02191690831515021790555060208201518160000160016101000a81548173ffffffffffffffffffffffffffffffffffffffff021916908373ffffffffffffffffffffffffffffffffffffffff1602179055506040820151816001015560608201518160020155608082015181600301559050507f000000000000000000000000000000000000000000000000000000000000000073ffffffffffffffffffffffffffffffffffffffff166342842e0e3033856040518463ffffffff1660e01b8152600401610666939291906121be565b600060405180830381600087803b15801561068057600080fd5b505af1158015610694573d6000803e3d6000fd5b505050507fb5cc593337b47735072870cc5e1ddb15579c230817de0787ed38f32a2c145cbd82336040516106c99291906121f5565b60405180910390a1506001808190555050565b60036020528060005260406000206000915090508060000160009054906101000a900473ffffffffffffffffffffffffffffffffffffffff16908060010154905082565b60026001541415610766576040517f08c379a000000000000000000000000000000000000000000000000000000000815260040161075d906120c6565b60405180910390fd5b60026001819055503373ffffffffffffffffffffffffffffffffffffffff167f000000000000000000000000000000000000000000000000000000000000000073ffffffffffffffffffffffffffffffffffffffff16636352211e866040518263ffffffff1660e01b81526004016107de919061204e565b602060405180830381865afa1580156107fb573d6000803e3d6000fd5b505050506040513d601f19601f8201168201806040525081019061081f9190612233565b73ffffffffffffffffffffffffffffffffffffffff1614610875576040517f08c379a000000000000000000000000000000000000000000000000000000000815260040161086c906122ac565b60405180910390fd5b600083116108b8576040517f08c379a00000000000000000000000000000000000000000000000000000000081526004016108af90612318565b60405180910390fd5b600082116108fb576040517f08c379a00000000000000000000000000000000000000000000000000000000081526004016108f290612384565b60405180910390fd5b7f000000000000000000000000000000000000000000000000000000000000000073ffffffffffffffffffffffffffffffffffffffff166342842e0e3330876040518463ffffffff1660e01b8152600401610958939291906121be565b600060405180830381600087803b15801561097257600080fd5b505af1158015610986573d6000803e3d6000fd5b5050505060006040518060a001604052806000151581526020013373ffffffffffffffffffffffffffffffffffffffff168152602001858152602001848152602001838152509050806002600087815260200190815260200160002060008201518160000160006101000a81548160ff02191690831515021790555060208201518160000160016101000a81548173ffffffffffffffffffffffffffffffffffffffff021916908373ffffffffffffffffffffffffffffffffffffffff1602179055506040820151816001015560608201518160020155608082015181600301559050507f9a9b103aecb698f4ff77369e96fd6809cbdc592cd590395fe1822ec46a0670788533604051610a9b9291906121f5565b60405180910390a1506001808190555050505050565b60026001541415610af7576040517f08c379a0000000000000000000000000000000000000000000000000000000008152600401610aee906120c6565b60405180910390fd5b60026001819055506000600260008381526020019081526020016000206040518060a00160405290816000820160009054906101000a900460ff161515151581526020016000820160019054906101000a900473ffffffffffffffffffffffffffffffffffffffff1673ffffffffffffffffffffffffffffffffffffffff1673ffffffffffffffffffffffffffffffffffffffff16815260200160018201548152602001600282015481526020016003820154815250509050600115158160000151151514610bfb576040517f08c379a0000000000000000000000000000000000000000000000000000000008152600401610bf2906123f0565b60405180910390fd5b3373ffffffffffffffffffffffffffffffffffffffff166003600084815260200190815260200160002060000160009054906101000a900473ffffffffffffffffffffffffffffffffffffffff1673ffffffffffffffffffffffffffffffffffffffff1614610c9f576040517f08c379a0000000000000000000000000000000000000000000000000000000008152600401610c969061245c565b60405180910390fd5b7f000000000000000000000000000000000000000000000000000000000000000073ffffffffffffffffffffffffffffffffffffffff166342842e0e3330856040518463ffffffff1660e01b8152600401610cfc939291906121be565b600060405180830381600087803b158015610d1657600080fd5b505af1158015610d2a573d6000803e3d6000fd5b5050505060006002600084815260200190815260200160002060000160006101000a81548160ff0219169083151502179055506040518060400160405280600073ffffffffffffffffffffffffffffffffffffffff16815260200160008152506003600084815260200190815260200160002060008201518160000160006101000a81548173ffffffffffffffffffffffffffffffffffffffff021916908373ffffffffffffffffffffffffffffffffffffffff160217905550602082015181600101559050503373ffffffffffffffffffffffffffffffffffffffff166108fc82604001519081150290604051600060405180830381858888f19350505050158015610e3b573d6000803e3d6000fd5b507fc030da26557a891f33dbaee473c007cdfa269acb9628d7d12e744ec6923ed2b382338360400151604051610e739392919061247c565b60405180910390a1506001808190555050565b6000600260008681526020019081526020016000206040518060a00160405290816000820160009054906101000a900460ff161515151581526020016000820160019054906101000a900473ffffffffffffffffffffffffffffffffffffffff1673ffffffffffffffffffffffffffffffffffffffff1673ffffffffffffffffffffffffffffffffffffffff16815260200160018201548152602001600282015481526020016003820154815250509050600015158160000151151514610f82576040517f08c379a0000000000000000000000000000000000000000000000000000000008152600401610f7990612132565b60405180910390fd5b3373ffffffffffffffffffffffffffffffffffffffff16816020015173ffffffffffffffffffffffffffffffffffffffff1614610ff4576040517f08c379a0000000000000000000000000000000000000000000000000000000008152600401610feb9061219e565b60405180910390fd5b60006040518060a001604052806000151581526020013373ffffffffffffffffffffffffffffffffffffffff168152602001868152602001858152602001848152509050806002600088815260200190815260200160002060008201518160000160006101000a81548160ff02191690831515021790555060208201518160000160016101000a81548173ffffffffffffffffffffffffffffffffffffffff021916908373ffffffffffffffffffffffffffffffffffffffff160217905550604082015181600101556060820151816002015560808201518160030155905050505050505050565b6110e4611b2a565b73ffffffffffffffffffffffffffffffffffffffff166111026111eb565b73ffffffffffffffffffffffffffffffffffffffff1614611158576040517f08c379a000000000000000000000000000000000000000000000000000000000815260040161114f906124ff565b60405180910390fd5b6111626000611b32565b565b7f000000000000000000000000000000000000000000000000000000000000000081565b60026020528060005260406000206000915090508060000160009054906101000a900460ff16908060000160019054906101000a900473ffffffffffffffffffffffffffffffffffffffff16908060010154908060020154908060030154905085565b60008060009054906101000a900473ffffffffffffffffffffffffffffffffffffffff16905090565b6002600154141561125a576040517f08c379a0000000000000000000000000000000000000000000000000000000008152600401611251906120c6565b60405180910390fd5b60026001819055506000600260008381526020019081526020016000206040518060a00160405290816000820160009054906101000a900460ff161515151581526020016000820160019054906101000a900473ffffffffffffffffffffffffffffffffffffffff1673ffffffffffffffffffffffffffffffffffffffff1673ffffffffffffffffffffffffffffffffffffffff1681526020016001820154815260200160028201548152602001600382015481525050905060001515816000015115151461135e576040517f08c379a000000000000000000000000000000000000000000000000000000000815260040161135590612132565b60405180910390fd5b60008160600151116113a5576040517f08c379a000000000000000000000000000000000000000000000000000000000815260040161139c9061256b565b60405180910390fd5b806080015181604001516113b991906125ba565b34146113fa576040517f08c379a00000000000000000000000000000000000000000000000000000000081526004016113f19061265c565b60405180910390fd5b60405180604001604052803373ffffffffffffffffffffffffffffffffffffffff168152602001428152506003600084815260200190815260200160002060008201518160000160006101000a81548173ffffffffffffffffffffffffffffffffffffffff021916908373ffffffffffffffffffffffffffffffffffffffff1602179055506020820151816001015590505060016002600084815260200190815260200160002060000160006101000a81548160ff0219169083151502179055507f000000000000000000000000000000000000000000000000000000000000000073ffffffffffffffffffffffffffffffffffffffff166342842e0e3033856040518463ffffffff1660e01b8152600401611518939291906121be565b600060405180830381600087803b15801561153257600080fd5b505af1158015611546573d6000803e3d6000fd5b50505050806080015160046000836020015173ffffffffffffffffffffffffffffffffffffffff1673ffffffffffffffffffffffffffffffffffffffff16815260200190815260200160002060008282546115a191906125ba565b925050819055507fe6cfa82d3ec969b90a4b9829a1257566d7092f05f0f878651326ae1a44e02fdc8233346040516115db9392919061247c565b60405180910390a1506001808190555050565b6115f6611b2a565b73ffffffffffffffffffffffffffffffffffffffff166116146111eb565b73ffffffffffffffffffffffffffffffffffffffff161461166a576040517f08c379a0000000000000000000000000000000000000000000000000000000008152600401611661906124ff565b60405180910390fd5b600073ffffffffffffffffffffffffffffffffffffffff168173ffffffffffffffffffffffffffffffffffffffff1614156116da576040517f08c379a00000000000000000000000000000000000000000000000000000000081526004016116d1906126ee565b60405180910390fd5b6116e381611b32565b50565b60046020528060005260406000206000915090505481565b60026001541415611744576040517f08c379a000000000000000000000000000000000000000000000000000000000815260040161173b906120c6565b60405180910390fd5b60026001819055506000600260008381526020019081526020016000206040518060a00160405290816000820160009054906101000a900460ff161515151581526020016000820160019054906101000a900473ffffffffffffffffffffffffffffffffffffffff1673ffffffffffffffffffffffffffffffffffffffff1673ffffffffffffffffffffffffffffffffffffffff16815260200160018201548152602001600282015481526020016003820154815250509050600115158160000151151514611848576040517f08c379a000000000000000000000000000000000000000000000000000000000815260040161183f906123f0565b60405180910390fd5b3373ffffffffffffffffffffffffffffffffffffffff16816020015173ffffffffffffffffffffffffffffffffffffffff16146118ba576040517f08c379a00000000000000000000000000000000000000000000000000000000081526004016118b19061219e565b60405180910390fd5b42816060015160036000858152602001908152602001600020600101546118e191906125ba565b1015611922576040517f08c379a00000000000000000000000000000000000000000000000000000000081526004016119199061275a565b60405180910390fd5b6040518060400160405280600073ffffffffffffffffffffffffffffffffffffffff16815260200160008152506003600084815260200190815260200160002060008201518160000160006101000a81548173ffffffffffffffffffffffffffffffffffffffff021916908373ffffffffffffffffffffffffffffffffffffffff160217905550602082015181600101559050506040518060a00160405280600015158152602001600073ffffffffffffffffffffffffffffffffffffffff168152602001600081526020016000815260200160008152506002600084815260200190815260200160002060008201518160000160006101000a81548160ff02191690831515021790555060208201518160000160016101000a81548173ffffffffffffffffffffffffffffffffffffffff021916908373ffffffffffffffffffffffffffffffffffffffff1602179055506040820151816001015560608201518160020155608082015181600301559050503373ffffffffffffffffffffffffffffffffffffffff166108fc82604001519081150290604051600060405180830381858888f19350505050158015611adf573d6000803e3d6000fd5b507f21359fc27a7c1e7b9afdaba38f1e2026334ccabffa446955f6a71feb96ed34d282338360400151604051611b179392919061247c565b60405180910390a1506001808190555050565b600033905090565b60008060009054906101000a900473ffffffffffffffffffffffffffffffffffffffff169050816000806101000a81548173ffffffffffffffffffffffffffffffffffffffff021916908373ffffffffffffffffffffffffffffffffffffffff1602179055508173ffffffffffffffffffffffffffffffffffffffff168173ffffffffffffffffffffffffffffffffffffffff167f8be0079c531659141344cd1fd0a4f28419497f9722a3daafe3b4186f6b6457e060405160405180910390a35050565b6000604051905090565b600080fd5b600080fd5b600073ffffffffffffffffffffffffffffffffffffffff82169050919050565b6000611c3582611c0a565b9050919050565b611c4581611c2a565b8114611c5057600080fd5b50565b600081359050611c6281611c3c565b92915050565b6000819050919050565b611c7b81611c68565b8114611c8657600080fd5b50565b600081359050611c9881611c72565b92915050565b600080fd5b600080fd5b6000601f19601f8301169050919050565b7f4e487b7100000000000000000000000000000000000000000000000000000000600052604160045260246000fd5b611cf182611ca8565b810181811067ffffffffffffffff82111715611d1057611d0f611cb9565b5b80604052505050565b6000611d23611bf6565b9050611d2f8282611ce8565b919050565b600067ffffffffffffffff821115611d4f57611d4e611cb9565b5b611d5882611ca8565b9050602081019050919050565b82818337600083830152505050565b6000611d87611d8284611d34565b611d19565b905082815260208101848484011115611da357611da2611ca3565b5b611dae848285611d65565b509392505050565b600082601f830112611dcb57611dca611c9e565b5b8135611ddb848260208601611d74565b91505092915050565b60008060008060808587031215611dfe57611dfd611c00565b5b6000611e0c87828801611c53565b9450506020611e1d87828801611c53565b9350506040611e2e87828801611c89565b925050606085013567ffffffffffffffff811115611e4f57611e4e611c05565b5b611e5b87828801611db6565b91505092959194509250565b60007fffffffff0000000000000000000000000000000000000000000000000000000082169050919050565b611e9c81611e67565b82525050565b6000602082019050611eb76000830184611e93565b92915050565b600060208284031215611ed357611ed2611c00565b5b6000611ee184828501611c89565b91505092915050565b611ef381611c2a565b82525050565b611f0281611c68565b82525050565b6000604082019050611f1d6000830185611eea565b611f2a6020830184611ef9565b9392505050565b60008060008060808587031215611f4b57611f4a611c00565b5b6000611f5987828801611c89565b9450506020611f6a87828801611c89565b9350506040611f7b87828801611c89565b9250506060611f8c87828801611c89565b91505092959194509250565b6000602082019050611fad6000830184611eea565b92915050565b60008115159050919050565b611fc881611fb3565b82525050565b600060a082019050611fe36000830188611fbf565b611ff06020830187611eea565b611ffd6040830186611ef9565b61200a6060830185611ef9565b6120176080830184611ef9565b9695505050505050565b60006020828403121561203757612036611c00565b5b600061204584828501611c53565b91505092915050565b60006020820190506120636000830184611ef9565b92915050565b600082825260208201905092915050565b7f5265656e7472616e637947756172643a207265656e7472616e742063616c6c00600082015250565b60006120b0601f83612069565b91506120bb8261207a565b602082019050919050565b600060208201905081810360008301526120df816120a3565b9050919050565b7f63757272656e7420626f72726f77656400000000000000000000000000000000600082015250565b600061211c601083612069565b9150612127826120e6565b602082019050919050565b6000602082019050818103600083015261214b8161210f565b9050919050565b7f6e6f7420746865206f776e657200000000000000000000000000000000000000600082015250565b6000612188600d83612069565b915061219382612152565b602082019050919050565b600060208201905081810360008301526121b78161217b565b9050919050565b60006060820190506121d36000830186611eea565b6121e06020830185611eea565b6121ed6040830184611ef9565b949350505050565b600060408201905061220a6000830185611ef9565b6122176020830184611eea565b9392505050565b60008151905061222d81611c3c565b92915050565b60006020828403121561224957612248611c00565b5b60006122578482850161221e565b91505092915050565b7f6d69736d6174636820686f6c6465720000000000000000000000000000000000600082015250565b6000612296600f83612069565b91506122a182612260565b602082019050919050565b600060208201905081810360008301526122c581612289565b9050919050565b7f6e6f6e207a65726f207072696365000000000000000000000000000000000000600082015250565b6000612302600e83612069565b915061230d826122cc565b602082019050919050565b60006020820190508181036000830152612331816122f5565b9050919050565b7f6e6f6e207a65726f207465726d00000000000000000000000000000000000000600082015250565b600061236e600d83612069565b915061237982612338565b602082019050919050565b6000602082019050818103600083015261239d81612361565b9050919050565b7f6e6f7420626f72726f7765640000000000000000000000000000000000000000600082015250565b60006123da600c83612069565b91506123e5826123a4565b602082019050919050565b60006020820190508181036000830152612409816123cd565b9050919050565b7f6e6f742064656274657200000000000000000000000000000000000000000000600082015250565b6000612446600a83612069565b915061245182612410565b602082019050919050565b6000602082019050818103600083015261247581612439565b9050919050565b60006060820190506124916000830186611ef9565b61249e6020830185611eea565b6124ab6040830184611ef9565b949350505050565b7f4f776e61626c653a2063616c6c6572206973206e6f7420746865206f776e6572600082015250565b60006124e9602083612069565b91506124f4826124b3565b602082019050919050565b60006020820190508181036000830152612518816124dc565b9050919050565b7f6e6f742076616c69640000000000000000000000000000000000000000000000600082015250565b6000612555600983612069565b91506125608261251f565b602082019050919050565b6000602082019050818103600083015261258481612548565b9050919050565b7f4e487b7100000000000000000000000000000000000000000000000000000000600052601160045260246000fd5b60006125c582611c68565b91506125d083611c68565b9250827fffffffffffffffffffffffffffffffffffffffffffffffffffffffffffffffff038211156126055761260461258b565b5b828201905092915050565b7f696e636f72726563742076616c75650000000000000000000000000000000000600082015250565b6000612646600f83612069565b915061265182612610565b602082019050919050565b6000602082019050818103600083015261267581612639565b9050919050565b7f4f776e61626c653a206e6577206f776e657220697320746865207a65726f206160008201527f6464726573730000000000000000000000000000000000000000000000000000602082015250565b60006126d8602683612069565b91506126e38261267c565b604082019050919050565b60006020820190508181036000830152612707816126cb565b9050919050565b7f6c6567616c207465726d00000000000000000000000000000000000000000000600082015250565b6000612744600a83612069565b915061274f8261270e565b602082019050919050565b6000602082019050818103600083015261277381612737565b905091905056fea26469706673582212205284565995f69bd999a178c48cfde1116f002f0a690e8bfe659648c1e640ddad64736f6c634300080a0033",
  "linkReferences": {},
  "deployedLinkReferences": {}
}